{
  "_format": "hh-sol-artifact-1",
  "contractName": "Transactions",
  "sourceName": "contracts/Transactions.sol",
  "abi": [
    {
      "anonymous": false,
      "inputs": [
        {
          "indexed": false,
          "internalType": "address",
          "name": "from",
          "type": "address"
        },
        {
          "indexed": false,
          "internalType": "address",
          "name": "receiver",
          "type": "address"
        },
        {
          "indexed": false,
          "internalType": "uint256",
          "name": "amount",
          "type": "uint256"
        },
        {
          "indexed": false,
          "internalType": "string",
          "name": "message",
          "type": "string"
        },
        {
          "indexed": false,
          "internalType": "uint256",
          "name": "timestamp",
          "type": "uint256"
        },
        {
          "indexed": false,
          "internalType": "string",
          "name": "keyword",
          "type": "string"
        }
      ],
      "name": "Transfer",
      "type": "event"
    },
    {
      "inputs": [
        {
          "internalType": "address payable",
          "name": "receiver",
          "type": "address"
        },
        {
          "internalType": "uint256",
          "name": "amount",
          "type": "uint256"
        },
        {
          "internalType": "string",
          "name": "message",
          "type": "string"
        },
        {
          "internalType": "string",
          "name": "keyword",
          "type": "string"
        }
      ],
      "name": "addToBlockchain",
      "outputs": [],
      "stateMutability": "nonpayable",
      "type": "function"
    },
    {
      "inputs": [],
      "name": "getAllTransactionCount",
      "outputs": [
        {
          "internalType": "uint256",
          "name": "",
          "type": "uint256"
        }
      ],
      "stateMutability": "view",
      "type": "function"
    },
    {
      "inputs": [],
      "name": "getAllTransactions",
      "outputs": [
        {
          "components": [
            {
              "internalType": "address",
              "name": "sender",
              "type": "address"
            },
            {
              "internalType": "address",
              "name": "receiver",
              "type": "address"
            },
            {
              "internalType": "uint256",
              "name": "amount",
              "type": "uint256"
            },
            {
              "internalType": "string",
              "name": "message",
              "type": "string"
            },
            {
              "internalType": "uint256",
              "name": "timestamp",
              "type": "uint256"
            },
            {
              "internalType": "string",
              "name": "keyword",
              "type": "string"
            }
          ],
          "internalType": "struct Transactions.TransferStruct[]",
          "name": "",
          "type": "tuple[]"
        }
      ],
      "stateMutability": "view",
      "type": "function"
    },
    {
      "inputs": [],
      "name": "getZakatTransactions",
      "outputs": [
        {
          "components": [
            {
              "internalType": "address",
              "name": "sender",
              "type": "address"
            },
            {
              "internalType": "address",
              "name": "receiver",
              "type": "address"
            },
            {
              "internalType": "uint256",
              "name": "amount",
              "type": "uint256"
            },
            {
              "internalType": "string",
              "name": "message",
              "type": "string"
            },
            {
              "internalType": "uint256",
              "name": "timestamp",
              "type": "uint256"
            },
            {
              "internalType": "string",
              "name": "keyword",
              "type": "string"
            }
          ],
          "internalType": "struct Transactions.TransferStruct[]",
          "name": "",
          "type": "tuple[]"
        }
      ],
      "stateMutability": "view",
      "type": "function"
    }
  ],
  "bytecode": "0x6080604052348015600f57600080fd5b506113ae8061001f6000396000f3fe608060405234801561001057600080fd5b506004361061004c5760003560e01c806327506f53146100515780635e4e25201461006f578063cc2d7ead1461008d578063eb19b392146100a9575b600080fd5b6100596100c7565b6040516100669190610b4b565b60405180910390f35b61007761030a565b6040516100849190610b7c565b60405180910390f35b6100a760048036038101906100a29190610d4a565b610313565b005b6100b16104c7565b6040516100be9190610b4b565b60405180910390f35b60606001805480602002602001604051908101604052809291908181526020016000905b8282101561030157838290600052602060002090600602016040518060c00160405290816000820160009054906101000a900473ffffffffffffffffffffffffffffffffffffffff1673ffffffffffffffffffffffffffffffffffffffff1673ffffffffffffffffffffffffffffffffffffffff1681526020016001820160009054906101000a900473ffffffffffffffffffffffffffffffffffffffff1673ffffffffffffffffffffffffffffffffffffffff1673ffffffffffffffffffffffffffffffffffffffff168152602001600282015481526020016003820180546101d490610e18565b80601f016020809104026020016040519081016040528092919081815260200182805461020090610e18565b801561024d5780601f106102225761010080835404028352916020019161024d565b820191906000526020600020905b81548152906001019060200180831161023057829003601f168201915b505050505081526020016004820154815260200160058201805461027090610e18565b80601f016020809104026020016040519081016040528092919081815260200182805461029c90610e18565b80156102e95780601f106102be576101008083540402835291602001916102e9565b820191906000526020600020905b8154815290600101906020018083116102cc57829003601f168201915b505050505081525050815260200190600101906100eb565b50505050905090565b60008054905090565b60016000808282546103259190610e78565b9250508190555060016040518060c001604052803373ffffffffffffffffffffffffffffffffffffffff1681526020018673ffffffffffffffffffffffffffffffffffffffff16815260200185815260200184815260200142815260200183815250908060018154018082558091505060019003906000526020600020906006020160009091909190915060008201518160000160006101000a81548173ffffffffffffffffffffffffffffffffffffffff021916908373ffffffffffffffffffffffffffffffffffffffff16021790555060208201518160010160006101000a81548173ffffffffffffffffffffffffffffffffffffffff021916908373ffffffffffffffffffffffffffffffffffffffff16021790555060408201518160020155606082015181600301908161045d9190611058565b506080820151816004015560a082015181600501908161047d9190611058565b5050507f416cfa4330a4565f45c2fd2dd4826a83a37443aba2ce6f79477c7355afac35fa3385858542866040516104b9969594939291906111d8565b60405180910390a150505050565b60606000805b600180549050811015610572576040518060400160405280600581526020017f5a414b4154000000000000000000000000000000000000000000000000000000815250805190602001206001828154811061052b5761052a611247565b5b90600052602060002090600602016005016040516105499190611319565b60405180910390200361056557818061056190611330565b9250505b80806001019150506104cd565b5060008167ffffffffffffffff81111561058f5761058e610c1f565b5b6040519080825280602002602001820160405280156105c857816020015b6105b56108ad565b8152602001906001900390816105ad5790505b5090506000805b6001805490508110156108a3576040518060400160405280600581526020017f5a414b4154000000000000000000000000000000000000000000000000000000815250805190602001206001828154811061062d5761062c611247565b5b906000526020600020906006020160050160405161064b9190611319565b604051809103902003610896576001818154811061066c5761066b611247565b5b90600052602060002090600602016040518060c00160405290816000820160009054906101000a900473ffffffffffffffffffffffffffffffffffffffff1673ffffffffffffffffffffffffffffffffffffffff1673ffffffffffffffffffffffffffffffffffffffff1681526020016001820160009054906101000a900473ffffffffffffffffffffffffffffffffffffffff1673ffffffffffffffffffffffffffffffffffffffff1673ffffffffffffffffffffffffffffffffffffffff1681526020016002820154815260200160038201805461074b90610e18565b80601f016020809104026020016040519081016040528092919081815260200182805461077790610e18565b80156107c45780601f10610799576101008083540402835291602001916107c4565b820191906000526020600020905b8154815290600101906020018083116107a757829003601f168201915b50505050508152602001600482015481526020016005820180546107e790610e18565b80601f016020809104026020016040519081016040528092919081815260200182805461081390610e18565b80156108605780601f1061083557610100808354040283529160200191610860565b820191906000526020600020905b81548152906001019060200180831161084357829003601f168201915b50505050508152505083838151811061087c5761087b611247565b5b6020026020010181905250818061089290611330565b9250505b80806001019150506105cf565b5081935050505090565b6040518060c00160405280600073ffffffffffffffffffffffffffffffffffffffff168152602001600073ffffffffffffffffffffffffffffffffffffffff168152602001600081526020016060815260200160008152602001606081525090565b600081519050919050565b600082825260208201905092915050565b6000819050602082019050919050565b600073ffffffffffffffffffffffffffffffffffffffff82169050919050565b60006109668261093b565b9050919050565b6109768161095b565b82525050565b6000819050919050565b61098f8161097c565b82525050565b600081519050919050565b600082825260208201905092915050565b60005b838110156109cf5780820151818401526020810190506109b4565b60008484015250505050565b6000601f19601f8301169050919050565b60006109f782610995565b610a0181856109a0565b9350610a118185602086016109b1565b610a1a816109db565b840191505092915050565b600060c083016000830151610a3d600086018261096d565b506020830151610a50602086018261096d565b506040830151610a636040860182610986565b5060608301518482036060860152610a7b82826109ec565b9150506080830151610a906080860182610986565b5060a083015184820360a0860152610aa882826109ec565b9150508091505092915050565b6000610ac18383610a25565b905092915050565b6000602082019050919050565b6000610ae18261090f565b610aeb818561091a565b935083602082028501610afd8561092b565b8060005b85811015610b395784840389528151610b1a8582610ab5565b9450610b2583610ac9565b925060208a01995050600181019050610b01565b50829750879550505050505092915050565b60006020820190508181036000830152610b658184610ad6565b905092915050565b610b768161097c565b82525050565b6000602082019050610b916000830184610b6d565b92915050565b6000604051905090565b600080fd5b600080fd5b6000610bb68261093b565b9050919050565b610bc681610bab565b8114610bd157600080fd5b50565b600081359050610be381610bbd565b92915050565b610bf28161097c565b8114610bfd57600080fd5b50565b600081359050610c0f81610be9565b92915050565b600080fd5b600080fd5b7f4e487b7100000000000000000000000000000000000000000000000000000000600052604160045260246000fd5b610c57826109db565b810181811067ffffffffffffffff82111715610c7657610c75610c1f565b5b80604052505050565b6000610c89610b97565b9050610c958282610c4e565b919050565b600067ffffffffffffffff821115610cb557610cb4610c1f565b5b610cbe826109db565b9050602081019050919050565b82818337600083830152505050565b6000610ced610ce884610c9a565b610c7f565b905082815260208101848484011115610d0957610d08610c1a565b5b610d14848285610ccb565b509392505050565b600082601f830112610d3157610d30610c15565b5b8135610d41848260208601610cda565b91505092915050565b60008060008060808587031215610d6457610d63610ba1565b5b6000610d7287828801610bd4565b9450506020610d8387828801610c00565b935050604085013567ffffffffffffffff811115610da457610da3610ba6565b5b610db087828801610d1c565b925050606085013567ffffffffffffffff811115610dd157610dd0610ba6565b5b610ddd87828801610d1c565b91505092959194509250565b7f4e487b7100000000000000000000000000000000000000000000000000000000600052602260045260246000fd5b60006002820490506001821680610e3057607f821691505b602082108103610e4357610e42610de9565b5b50919050565b7f4e487b7100000000000000000000000000000000000000000000000000000000600052601160045260246000fd5b6000610e838261097c565b9150610e8e8361097c565b9250828201905080821115610ea657610ea5610e49565b5b92915050565b60008190508160005260206000209050919050565b60006020601f8301049050919050565b600082821b905092915050565b600060088302610f0e7fffffffffffffffffffffffffffffffffffffffffffffffffffffffffffffffff82610ed1565b610f188683610ed1565b95508019841693508086168417925050509392505050565b6000819050919050565b6000610f55610f50610f4b8461097c565b610f30565b61097c565b9050919050565b6000819050919050565b610f6f83610f3a565b610f83610f7b82610f5c565b848454610ede565b825550505050565b600090565b610f98610f8b565b610fa3818484610f66565b505050565b5b81811015610fc757610fbc600082610f90565b600181019050610fa9565b5050565b601f82111561100c57610fdd81610eac565b610fe684610ec1565b81016020851015610ff5578190505b61100961100185610ec1565b830182610fa8565b50505b505050565b600082821c905092915050565b600061102f60001984600802611011565b1980831691505092915050565b6000611048838361101e565b9150826002028217905092915050565b61106182610995565b67ffffffffffffffff81111561107a57611079610c1f565b5b6110848254610e18565b61108f828285610fcb565b600060209050601f8311600181146110c257600084156110b0578287015190505b6110ba858261103c565b865550611122565b601f1984166110d086610eac565b60005b828110156110f8578489015182556001820191506020850194506020810190506110d3565b868310156111155784890151611111601f89168261101e565b8355505b6001600288020188555050505b505050505050565b6111338161095b565b82525050565b600061115461114f61114a8461093b565b610f30565b61093b565b9050919050565b600061116682611139565b9050919050565b60006111788261115b565b9050919050565b6111888161116d565b82525050565b600082825260208201905092915050565b60006111aa82610995565b6111b4818561118e565b93506111c48185602086016109b1565b6111cd816109db565b840191505092915050565b600060c0820190506111ed600083018961112a565b6111fa602083018861117f565b6112076040830187610b6d565b8181036060830152611219818661119f565b90506112286080830185610b6d565b81810360a083015261123a818461119f565b9050979650505050505050565b7f4e487b7100000000000000000000000000000000000000000000000000000000600052603260045260246000fd5b600081905092915050565b60008190508160005260206000209050919050565b600081546112a381610e18565b6112ad8186611276565b945060018216600081146112c857600181146112dd57611310565b60ff1983168652811515820286019350611310565b6112e685611281565b60005b83811015611308578154818901526001820191506020810190506112e9565b838801955050505b50505092915050565b60006113258284611296565b915081905092915050565b600061133b8261097c565b91507fffffffffffffffffffffffffffffffffffffffffffffffffffffffffffffffff820361136d5761136c610e49565b5b60018201905091905056fea264697066735822122048ce6ff2fd072d27142dfcfc893e4106d0e8e11a82bf7456e7f5442693d3d28464736f6c634300081c0033",
  "linkReferences": {},
  "deployedLinkReferences": {}
}